:030000000209BB37
:0C09BB00787FE4F6D8FD75810F0208007B
:0709C70075C21775C207227B
:10098300E4FFFE8FC2E4F5C4F5C3F5C50FBF000154
:100993000EEF64084E70EC1209C7E4FFFE0FBF00B0
:0809A300010EBE03F8BFE8F5E8
:0109AB002229
:0E09AC00E4FFFE0FBF00010EBE03F8BFE8F52A
:0109BA00221A
:100800007D097C00E4F508F509F50AF50BF50CF512
:100810000DF50EF50FFBFA0BBB00010ABA01F8BB90
:10082000F4F5E4FFFE8FC2E4F5C475C3FFF5C50F10
:10083000BF00010EEF64084E70EB1209C7E4FAFB2B
:100840000BBB00010ABA03F8BBE8F5E4FEFF8FC258
:1008500075C4FFE4F5C3F5C50FBF00010EEF6408D2
:100860004E70EB1209C7E4FAFB0BBB00010ABA0396
:10087000F8BBE8F5E4FEFF8FC2E4F5C4F5C375C527
:10088000FF0FBF00010EEF64084E70EB1209C7E4C2
:10089000FAFB0BBB00010ABA03F8BBE8F5120983A7
:1008A000E4F50CF50DF50A750BFFF50EF50FAFC667
:1008B000EF24FE60440470F60DBD00010CC3ED94FE
:1008C00008EC648094804006E4FCFD120983E4FA9D
:1008D000FBD3EB9DEC6480F8EA64809850128BC2E5
:1008E000850DC4850BC3850FC50BBB00010A80E1D4
:1008F000ED2410F5C28DC280B50509E50970020529
:1009000008640345087004F508F509E5087035E545
:100910000914601314601D24027029E4F50CF50D10
:10092000F50A750BFF8026750C00750DFFE4F50ABE
:10093000F50B8019E4F50CF50DF50AF50BF50E75C0
:100940000FFF800DE4F50CF50DF50AF50BF50EF52E
:100950000FED64094C6022E4FAFBD3EB9DEC64805C
:10096000F8EA64809850128BC2850DC4850BC3854C
:100970000FC50BBB00010A80E1ED2410F5C28DC24A
:030980000208AEBC
:00000001FF
