:03000000020A2FC2
:0C0A2F00787FE4F6D8FD75811302080002
:070A3B0075C21775C2072206
:1009F800E4FFFE8FC2E4F5C4F5C3F5C50FBF0001DF
:100A08000EEF64084E70EC120A3BE4FDFCE4FEFFB6
:100A18000FBF00010EEF64644E70F50DBD00010CB0
:060A2800BC03EABDE8E793
:010A2E0022A5
:10080000750A00750B09E4F50CF50DF50EF50FF5FD
:1008100010F511F512F513F508F509E4FAFB0BBB19
:1008200000010AEB64644A70F50509E509700205E8
:1008300008B4F4E7E508B401E2E4FAFB8BC2E4F59E
:10084000C475C3FFF5C50BBB00010AEB64084A7011
:10085000EB120A3BE4F508F509E4FAFB0BBB0001D7
:100860000ABA03F8BBE8F50509E50970020508B402
:10087000E8E7E508B403E2E4FAFB8BC275C4FFE4E1
:10088000F5C3F5C50BBB00010AEB64084A70EB1217
:100890000A3BE4F508F509E4FAFB0BBB00010ABAD0
:1008A00003F8BBE8F50509E50970020508B4E8E7B7
:1008B000E508B403E2E4FAFB8BC2E4F5C4F5C375C2
:1008C000C5FF0BBB00010AEB64084A70EB120A3B40
:1008D000E4F508F509E4FAFB0BBB00010ABA03F8DA
:1008E000BBE8F50509E50970020508B4E8E7E50885
:1008F000B403E21209F8E4F510F511F50E750FFFD7
:10090000F512F513AFC6EF24FE60550470F6050B23
:10091000E50B7002050AC39408E50A6480948040E0
:1009200008E4F50AF50B1209F8E4F508F509D3E532
:1009300009950BE50A6480F8E508648098501685EF
:1009400009C28511C4850FC38513C50509E5097062
:10095000DD050880D9AF0BEF2410F5C28FC280A44B
:10096000050DE50D7002050C6403450C7004F50CD3
:10097000F50DE50C7035E50D14601314601D2402AF
:100980007029E4F510F511F50E750FFF802675102E
:10099000007511FFE4F50EF50F8019E4F510F5115F
:1009A000F50EF50FF5127513FF800DE4F510F51136
:1009B000F50EF50FF512F513E50B6409450A602CE9
:1009C000E4F508F509D3E509950BE50A6480F8E537
:1009D0000864809850168509C28511C4850FC385A7
:1009E00013C50509E50970DD050880D9AF0BEF24B3
:0809F00010F5C28FC2020904D8
:00000001FF
